:060000000C94ED030C94CA
:1000060000000C9400000C9400000C9400000C946A
:1000160000000C9400000C9400000C9400000C945A
:1000260000000C9400000C9400000C9400000C944A
:1000360000000C9400000C9400000C9400000C943A
:1000460000000C9400000C9400000C9400000507BE
:100056002060000000000000005F000000070007AD
:1000660000147F147F14242A7F2A12231308646243
:1000760036495522500005030000001C22410000AD
:1000860041221C00082A1C2A0808083E08080050BD
:10009600300000080808080800303000002010086A
:1000A60004023E5149453E00427F400042615149AB
:1000B600462141454B311814127F102745454539D5
:1000C6003C4A494930017109050336494949360612
:1000D6004949291E00363600000056360000000841
:1000E600142241141414141441221408000201515C
:1000F6000906324979413E7E1111117E7F494949EF
:10010600363E414141227F4141221C7F49494941B6
:100116007F090901013E414151327F0808087F00ED
:10012600417F41002040413F017F081422417F402A
:100136004040407F0204027F7F0408107F3E414119
:10014600413E7F090909063E4151215E7F09192971
:1001560046464949493101017F01013F4040403F40
:100166001F2040201F7F2018207F6314081463037C
:1001760004780403615149454300007F414102046C
:1001860008102041417F0000040201020440404063
:100196004040000102040020545454787F484444EF
:1001A600383844444420384444487F38545454181A
:1001B600087E090102081454543C7F0804047800A0
:1001C600447D40002040443D00007F10284400410B
:1001D6007F40007C041804787C0804047838444482
:1001E60044387C14141408081414187C7C0804047D
:1001F600084854545420043F4440203C4040207C4E
:100206001C2040201C3C4030403C44281028440C14
:100216005050503C4464544C4400083641000000A1
:100226007F0000004136080002010204027F4141BE
:10023600417FFEFDFBF7080901030206040C0001DD
:1002460003070F1F3F7FFF001027E80364000A0023
:1002560001000010000110000100000020494E209E
:10026600544845204E414D45204F4620474F4400B7
:1002760020202020202057454C434F4D4521004546
:100286004E54455220204D4F4F44203A00312E49BE
:1002960054454D5300322E4D4F544F522026204484
:1002A600494D454E53494F4E00332E4150504C59FF
:1002B600202100342E41424F55542050524F4A457A
:1002C600435400504C454153452053454C454354F7
:1002D6003A00312E53484F5720414C4C00322E5392
:1002E600484F57204954454D5300434F4E54524FA3
:1002F6004C204C49534552204355545445520042D4
:10030600593A004D4F48414D4D4144204A415641CE
:1003160044204144454C004954454D202564004441
:100326004154413A002027256327200025642025D3
:1003360064202564003C20505245004E4558542008
:100346003E00204261634B002A2053484F57002F3E
:100356002045444954002564202564202564202036
:1003660020002564202564202020202000312E53E3
:10037600455420535045454400322E53455420449D
:10038600494D454E53494F4E5300332E4241434B40
:1003960000454E544552204E45572056414C554532
:1003A600286D73293A005448454E20505245535300
:1003B600202020454E2000544845204445464155BE
:1003C600542049533A003132382A363400544849C9
:1003D6005320495320554E4348414E474541424CD0
:1003E6004500312E4150504C5920414C4C00322E84
:1003F6004150504C59204F4E45204954454D002000
:100406004150504C59494E472E2E2E20210053451F
:100416004C454354204954454D3A003129495445E9
:100426004D2031202032294954454D2032003329B0
:100436004954454D2033202034294954454D203414
:100446000035294954454D20350053454C45435404
:1004560020545950453A00312D72656374616E67B8
:100466006C652020322D6C696E6500332D636972D0
:10047600636C6520202020342D736563746F7200D1
:10048600312D72656374616E676C652020202020B3
:100496002020200020202020202020202020202076
:1004A6002020202020202020002020202020202066
:1004B600202020202020322D6C696E6500332D63AC
:1004C6006972636C652020202020202020202020B7
:1004D6002000202020202020202020202020342D15
:1004E600736563746F7200454E5452204441544103
:1004F600202620505245535320454E0058313D206A
:10050600202020202020202059313D20202020009E
:1005160058323D20202020202020202059323D2006
:1005260020202020005261646975733D2020202020
:100536002020202020202020003C313D202020208B
:1005460020202020203C323D202020202000434F28
:100556004D504C45544544203D3E20505245535342
:10056600203E0053563A20454E00444154413A201D
:100576002020202020202020202020202020005362
:100586004156454421005F202020200057524F4EFF
:100596004720005F20202000256420200041707045
:1005A6006C79696E6720636972636C652E2E2E0006
:1005B60049742773206E6F7420617661696C61627D
:1005C6006C6521004170706C79696E67206C696E8C
:1005D600652E2E2E202020004170706C79696E6782
:1005E60020736563746F722E2E2E000001002D4E4F
:1005F600414E00494E46000002000400600214000D
:10060600600262020F00740276020E008302850207
:10061600080091029302140099029B020A00AD029F
:10062600AF021000B702B9020F00C702C9020B00E1
:10063600D602D8020D00E102E3021500EE02F00236
:1006460004000303050314000703090306001B0344
:100656002503060021033B03070027034103060089
:100666002E034803070034034E0307003B035503DC
:100676000F004203C9020C005103730311005D030E
:100686007F0307006E03900315007503970311009F
:100696008A03AC030F009B03BD030700AA03CC0328
:1006A6001500B103D3030F00C603C9020C00D5031E
:1006B600E8031100E103F4030F00F20305040D0043
:1006C6000104140413000E0421041300210434044D
:1006D6000900340447040F003D04050406004C04D9
:1006E60048030700520441030D0059045004140046
:1006F60066045D0415007A04710414008F048604F0
:100706001500A3049A041400B804AF041500CC0421
:100716009A041500E1049A041500F604C3041500B2
:100726000B059A0415002005D80415003505ED04BF
:1007360014004A05020515005E059A0415007305A6
:100746001605140088052B0515009C053F051400A9
:10075600B1052B051500C50554050700DA05690521
:100766001500E10570051500F6059A0415000B063F
:100776009A04150020069A0407003506850506002A
:100786003C068C05070042069205050049069905B8
:1007960007004E06410307005506920505005C0654
:1007A600990507006106410313006806A3051400B6
:1007B6007B06B60514008F06CA051400A306B60507
:1007C6001300B706DE051400CA06B6050100FE06CC
:1007D600F2050000F894EE27ECBBF1E0FBBFEBBF9F
:1007E600E5BF8DE0A2E0BB27ED938A95E9F780E0AF
:1007F60098E0A0E6ED930197E9F7EEEFF5E0859135
:100806009591009761F0A591B59105901590BF015E
:10081600F00105900D920197E1F7FB01F0CFEFE5AE
:10082600EDBFE8E0EEBFC0E6D2E00C941A042697CE
:1008360000E010E0E0E0EABBEBBBE7BBE8BBEFE0C3
:10084600E4BBE5BBE0E0E1BBE2BBE3BFE2BFECBF7C
:10085600EFBDEEBDEDBDECBDE7BDE6BDEBBDEABD52
:10086600E9BDE8BDE2BDE5BDE4BDE3BDE9BFE5BF69
:10087600E4BFEAB9E0E8E8B9E0E0E0BFE6B9EDB91F
:10088600E6BFE4E5F0E0E883F983E0E0EA83EB83A2
:10089600EC83ED83DE010E943F0B0E943E180E940E
:1008A6004618E5E0EA93EFE0EA93A0E6B2E00E949C
:1008B6004B18E9E1EA93A4E7B2E00E94360F00E0A4
:1008C60010E00A30E0E01E0754F4AAE00E94501837
:1008D6000A02F0010E9455180F5F1F4FF2CF0E94C7
:1008E600A30B02D0FECFFFCF0E946018A3E8B2E0B0
:1008F6000E946B180E947418A1E9B2E00E944B187E
:10090600E3E2EA93A9E9B2E00E944B18EDE2EA932A
:10091600ADEAB2E00E944B18E7E3EA93A7EBB2E038
:100926000E947E18F801309739F50E94A30BE4E087
:10093600EA93E5E0EA93A7ECB2E00E946B180E9406
:100946008418A6EDB2E00E944B18E3E2EA93A1EE0A
:10095600B2E00E947E180E94A30B002E012A29F401
:10096600A5E0B0E00E948E1806C0E1E0F0E0E017D6
:10097600F10709F479D011C0E130A0E0FA0711F4CB
:1009860043D10BC0E230A0E0FA0711F497D105C0BD
:10099600E330A0E0FA0709F44CD08DC10E94D51EC1
:1009A60000E010E020E030E040E150E000E010E040
:1009B6000430E0E01E07C4F5F801E85CFD4F049042
:1009C60005BA8BE18A95F1F79C9907C020E030E0E3
:1009D6009C9BFECF0E94941828C09D9910C021E0D0
:1009E60030E09D9BFECF0E949418AF01E9E0F0E055
:1009F600E417F50711F44FEF5FEFFA0116C09E9961
:100A060007C022E030E09E9BFECF0E9494180DC0E6
:100A16009F9907C023E030E09F9BFECF0E94941869
:100A260004C00F5F1F4FC4CFC1CF0E94DC1E2696A5
:100A360008950E949A18AEEEB2E00E94360FE7E3E0
:100A4600EA93EEE1EA93A3E0B3E00E94360FE7E013
:100A5600EA93E8E2EA93A7E0B3E00E94360FA0E249
:100A6600B3E00E94AB1808952F970E94D51E00E0B0
:100A760010E021E030E051E041E0503009F4C0C020
:100A8600413009F059C00E94AF180E94B5180E9463
:100A9600BC180E94CC18E1E20E94D318E0E0EA9369
:100AA600E2E3EA930E94B518EAE2EA93E2E3EA9304
:100AB600EBE2EA93EFE00E94D318E5E5EA93E2E37E
:100AC600EA930E94B5180E94D7180E94DC180E946B
:100AD600F118ABE1B3E00E94F6180E94F918E2E3C0
:100AE600F3E00E9418190E942119E5E3F3E00E9441
:100AF60018190E945519E3E0EA93EA93A1E2B3E0DC
:100B06000E947B19E3E0EA93A7E2B3E00E94801912
:100B1600E5E3EA93AEE2B3E00E94360FECE2EA9335
:100B2600E5E3EA93A4E3B3E00E947B19E5E3EA93E5
:100B3600ABE3B3E00E94360F31DF8F01EF30A0E068
:100B4600FA0739F40E94A30BD9011197D7D141E0D6
:100B560056C0EE30A0E0FA0741F40E94A30BD9017B
:100B660011970E948E1841E04AC0ED30A0E0FA07C6
:100B7600F1F4215030402130E0E03E0714F425E046
:100B860030E040E00E94D7180E94DC180E94D71877
:100B96000E94F918ECE5F3E00E9418190E94211949
:100BA600E8E6F3E00E9418190E94551928C0EC30B7
:100BB600A0E0FA07F1F42F5F3F4F2630E0E03E0752
:100BC60014F021E030E040E00E94D7180E94DC18C3
:100BD6000E94D7180E94F918ECE5F3E00E94181954
:100BE6000E942119E8E6F3E00E9418190E9455199F
:100BF60006C0EA30A0E0FA0711F450E040E03DCF2D
:100C06000E94DC1E659608950E946018A2E4B3E077
:100C16000E946B180E947418A1E5B3E00E944B185D
:100C2600E3E2EA93ADE5B3E00E944B18EDE2EA9306
:100C3600AEE6B3E00E947E18F8013097D9F40E9420
:100C46003E18EFE30E94D318E5E0EA93EAE0EA9360
:100C5600A5E7B3E00E944B18E4E1EA93AAE8B3E003
:100C66000E944B18AEE1E9D2AEE1B0E0F0E00E949E
:100C7600AE1E21C0E130A0E0FA07E9F40E943E185A
:100C8600EFE30E94D318E4E1EA93EAE0EA93ABE9E2
:100C9600B3E00E94360FEDE2EA93EEE1EA93AAEAA8
:100CA600B3E00E944B18E2E3EA93A1EBB3E00E94A3
:100CB600360F0E9485190991199108950E94D71E31
:100CC60000E010E031E020E00E94A30BE4E0EA93AC
:100CD600E5E0EA93A6ECB3E00E946B180E94841844
:100CE600A5EDB3E00E944B18E3E2EA93A1EEB3E070
:100CF6000E947E18002E012AE1F50E943E180E94ED
:100D06004618E4E1EA93EA93A2EFB3E00E94360FB5
:100D160020E02A3048F4A4E10E9450182A02F0018B
:100D26000E9455182F5FF5CF0E94A30B00E010E03C
:100D36000530E0E01E07E4F40E94891929F4D80181
:100D4600E0D20E94851911C0EC34A0E0FA0711F434
:100D56008CD30BC0E334A0E0FA0711F47BD305C0B3
:100D6600E335A0E0FA0709F48BD30F5F1F4FE0CFFE
:100D760067C0E1E0F0E0E017F10709F060C030304D
:100D860009F45CC00E94AF18E0E8EA93E0E4EA9355
:100D9600A5E00E94C8100E94F118A1E0B4E00E94EC
:100DA6008019EEE1EA93AEE0B4E00E948019E8E231
:100DB600EA93A1E2B4E00E948019E2E3EA93A4E395
:100DC600B4E00E947E180530E0E01E0714F41123FB
:100DD6000AF417C00E943E180E944618E4E1EA93FE
:100DE600EA93ADE3B4E00E94360F20E02A3048F4DF
:100DF600A4E10E9450182A02F0010E9455182F5FA4
:100E0600F5CF0E94A30B30E00E94891929F4D8017E
:100E160078D20E94851911C0EC34A0E0FA0711F4CB
:100E260024D30BC0E334A0E0FA0711F413D305C0B2
:100E3600E335A0E0FA0709F423D3A1CF01C046CFDA
:100E46000C94C50BBA93AA931A930A9300E00E94D6
:100E56009919E050F0400E949F19E12FF0E0E23529
:100E6600A0E0FA0739F40E9499190E94A4190E9479
:100E7600941034C0EC34A0E0FA0739F40E949919B2
:100E86000E94A4190E94730F29C0E334A0E0FA0758
:100E960041F40E9499190E94CC19AE2F0E94621348
:100EA6001DC0E335A0E0FA07C9F40E9499190E9413
:100EB600CC19F0E0FA93EA93AE81BF810E94E8195B
:100EC600F0E0FA93EA93A885B985E6E00E943C1E15
:100ED600EB5FFF4F0E94F1190E949C13AA81BB8110
:100EE600159741F400E0053028F4A02FBB27AADFB0
:100EF6000F5FF9CF198108810C94C70BBA93AA9397
:100F060065970E94D71E11E020E030E0E0E0EA930A
:100F1600EA930E94B5180E94BC18E3E0EA93EA93AC
:100F2600ACE4B4E00E947B19E3E0EA93A2E5B4E006
:100F36000E94F619EDE1F3E0FA93EA93ED8DFE8D4A
:100F460031960E94FD19EBE2EA93E3E0EA93DE01B3
:100F56001C960E94360F0E94CC18E0E30E94D3181C
:100F6600113008F466C1E12FF0E0E130A0E0FA07A5
:100F760009F05BC00E94F118A9E5B4E00E9480194F
:100F8600EEE1EA93A6E6B4E00E948019E8E2EA936D
:100F9600AAE7B4E00E94061AF901309761F4E2E587
:100FA6000E940C1AAFE8B4E00E948019E8E2EA93C6
:100FB600A3EAB4E02FC0E130A0E0FA0761F4ECE464
:100FC6000E940C1AA8EBB4E00E948019E8E2EA93AA
:100FD600ACECB4E01FC0E230A0E0FA0761F4E3E451
:100FE6000E940C1AA1EEB4E00E948019E8E2EA938E
:100FF600A6EFB4E00FC0E330A0E0FA0769F4E3E53A
:101006000E940C1AABE0B5E00E948019E8E2EA9370
:10101600A0E2B5E00E94360FC1DC9F01ECE0F0E0F3
:10102600E217F30709F41F5FFDC0E230A0E0FA07FC
:1010360009F060C00E94F118A5E3B5E00E9480198E
:10104600EEE1EA93AAE4B5E00E948019E8E2EA93A9
:10105600AEE5B5E00E94121AAEE1EFD0ED83EFE502
:10106600EA93AEE1EAD0EE83AC81A23511F0AC345E
:1010760079F40E94171AA3E7B5E00E94121AA8E2B3
:10108600DCD0EF83EFE5EA93A8E2D7D0E88725C066
:10109600AC81A33441F40E94171AA8E8B5E00E9477
:1010A6001C1AEF831AC0AC81A335B9F40E94171A33
:1010B600ACE9B5E00E94121AA8E2BFD0EF83E1E6E0
:1010C600EA93A8E2BAD0E887E2E0EA93E2E3EA9399
:1010D600A1EBB5E00E941C1AE9870E94F118A5EC65
:1010E600B5E00E94061AECE0F0E0E217F30709F417
:1010F6001F5F98C0E330A0E0FA0709F093C00E9492
:10110600231AAAEDB5E00E94360F0E94F118A1EE4F
:10111600B5E00E94F619EBE2F3E0FA93EA93E8856C
:101126000E94281A84E00E94E2152896ECE3EA93CE
:10113600E4E1EA93DE011C960E94F619ECE5F3E081
:10114600FA93EA93E9850E94281AEE850E94281AE6
:10115600EB890E94281A8CE00E94E2156096E2E074
:10116600EA93EEE1EA93A6EFB5E00E94360FEEE1D0
:10117600EA93EA93DE011C960E94F619E8E6F3E08C
:10118600FA93EA93EC850E94281AE9890E94281AA4
:1011960088E00E94E2152C960E94171AABE0B6E092
:1011A6000E94360FE3E2EA93E8E2EA93DE011C9638
:1011B6000E948019E2E3EA93A0E2B6E00E94061AD2
:1011C600EBE0F0E0E217F30769F51F5F143051F525
:1011D60020E030E02630E0E03E07ACF4A98DBA8D81
:1011E600E6E00E943C1EE050F040E20FF31F0F01C4
:1011F600DE011496A20FB31FEC91D0010E94B61E19
:101206002F5F3F4FE7CF0E94A30BEFE2EA93EEE199
:10121600EA93A5E3B6E00E94360FA4EFB1E00E9480
:10122600AB1810E0EAE0F0E0E217F30709F410E08B
:1012360097CE0E94DE1E6B960895AA932F970E9462
:10124600D51E10E020E030E00E942E1AACE3B6E096
:101256000E94360FA3DB9F012A30E0E03E07F4F040
:10126600EBE0F0E0E217F30721F44030E1E05E073F
:101276000CF003C0142FE12F40C00E94231AA2E4F1
:10128600B6E00E94360F0E942E1AA9E4B6E00E942C
:10129600351AAEE4B6E00E94360F2EC02F5F3F4FE0
:1012A600FA01AAE0B0E00E94421EE20FF31FAF016E
:1012B6004030E1E05E0784F40E94D718EEE9F5E0DD
:1012C600FA93EA93FA010E94FD19EE89EA93EE89F0
:1012D600EA93DE0118960EC00E94231AA5E5B6E031
:1012E6000E94360F0E942E1AACE5B6E00E94351A0F
:1012F600A1E6B6E00E94360FADCF0E94DC1E6796CF
:101306000895BA93AA931A93E0E0EA93EA93AB811D
:10131600BC810E943C1AEA93AC81BD810E94451AA9
:101326000E94F119BED0BE9AC69AEFE0E1BB0E94B8
:101336004B1AEF5F1E2F0E944E1AE11790F0E12F15
:10134600E150EA930E949919EE5FFF4F0E94F1194E
:101356000E94591A08F444240E945E1A1F5F43949F
:10136600EACFE0EFE1BBA981BA810E94451ADF010D
:101376000E94A21EEF5F1E2FA981BA810E94E81962
:10138600E11770F00E944E1AEA93A12FA1500E9415
:101396006B1A08F455240E94701A1F5F5394ECCF01
:1013A600EFE0E1BBA981BA81E6E00E943C1EED5F59
:1013B600FF4F0E949F190E944B1A1E1788F01A931E
:1013C6000E949919EC5FFF4F0E94F1190E94591A69
:1013D60010F4E7E04E2E0E945E1A11504A94EBCFAD
:1013E600E0EFE1BB5A94A981BA81E6E00E943C1E77
:1013F600EC5FFF4F0E949F19A981BA810E94451A8E
:10140600DF010E94A21E1E1770F00E944B1AEA937B
:10141600A12F0E946B1A10F4E7E05E2E0E94701A4C
:1014260011505A94E9CFE0E0E1BBC6980E944B1AEE
:10143600EA930E949919EE5FFF4FDF010E94A21EF8
:10144600EA93E0E0EA93A0E02CD0442455241881E6
:101456000C94640F0E949A18A8E6B6E00E944B18F6
:10146600EEE1EA93ABE7B6E015C00E949A18AFE842
:10147600B6E00E944B18EEE1EA93A3EAB6E00AC092
:101486000E949A18A7EBB6E00E944B18EEE1EA9389
:10149600AAECB6E00E94360FA4EFB1E00E94AB18AA
:1014A6000895AA93EFE0E1BBE981AB81EA17A8F0C2
:1014B600EB81EF5FEB83E981AB81EA1768F0EB81A3
:1014C600E1500E947F1A08F444240E945E1AEB81C0
:1014D600EF5FEB834394EFCF18C0EB81E150EB83D2
:1014E600E981AB81AE1710F0AF3F09F40EC0EB8176
:1014F600EF5F0E947F1A10F4E7E04E2E0E945E1AFC
:10150600EB81E150EB834A94EBCFE0EFE1BBE8815E
:10151600AA81EA17B8F0EA81EF5FEA83E881AA8137
:10152600EA1778F0E981EA93AB81A1500E94871A05
:1015360008F455240E94701AEA81EF5FEA835394F7
:10154600EDCF1AC0EA81E150EA83E881AA81AE179D
:1015560010F0AF3F09F410C0E981EA93AB81AF5FA9
:101566000E94871A10F4E7E05E2E0E94701AEA8144
:10157600E150EA835A94E9CFE0E0E1BB05C10000FF
:10158600C09A00000895C098C498C59808951A9303
:10159600F6DF19B3C098E12F19910895AA931A930B
:1015A600E0E0EABBC19AC298E981EF5F1E2F10FF07
:1015B60002C0C49A01C0C49811FF02C0C59A01C0F6
:1015C600C598E5DFE078E9F7188188C4AA93A98170
:1015D600E5DF0E948D1A82C4E091FC06EA93E09151
:1015E600FB06EF73E064AE2FF1DFE091FC06EA93B1
:1015F600E091FD06E86BAE2FE9DF0895AA93E98135
:10160600E093FB06E295EF70E695E695E093FC061F
:10161600E881E093FD06E0DF61C4A091FB06AF5FC1
:10162600A093FB06A03818F0E0E0E093FB06E091FB
:10163600FB06EF7331F4E091FB06EA93A091FD06F9
:10164600DDDF0895AA93A091FC06A8DFC29A0E9446
:101656008D1A21960895A091FC06A0DFE0E0EABB72
:10166600C19AC29A94DF08950E94961A0E949B1A04
:10167600F2DFB2DFF0DF32C4BA93AA931A93B89AB4
:10168600B99ABA9ABB9AC39ABC9ABD9A7CDFC39898
:10169600A4E6B0E00E94401CC39A10E0123040F469
:1016A6001A93AFE393DF1A931395A0EC8FDFF6CF6F
:1016B600E1E0E093DE06E0E0E093DF06E981FA810F
:1016C6003097A9F0A981BA810E946B1EE093E206C9
:1016D600F093E30612960E946B1EE093F706F093D2
:1016E600F806A981BA8114960E946B1E0AC0E0E032
:1016F600F0E0E093E206F093E306E093F706F0935A
:10170600F806E093F906F093FA06E1E0E093E406C2
:10171600E093E506E093E606EFEFE093E706E1E007
:10172600E093EE06EFEEF6E0FA93EA93EFEFEA9334
:10173600A8E0B0E00E94161603D0E1E01881C1C30C
:101746000E94D71E00E030E0E091DF06E03009F0AD
:101756000FEF383078F4E0E0EA93A32F3F5F4EDFD7
:1017660010E0A12F1F5FA03820F4A02F0E94A11A1D
:10177600F8CFEFCFE0E0EA93A0E040DFE0E0EA93C5
:10178600A0E0A1D30E94DE1E24960895AA931A9380
:101796000A93AC81A03818F4AB81A03418F01981F3
:1017A600088174C3EC81EA93AC815EDF1E2F14DFDF
:1017B600EB81E770A1E00E94031E0E2FEA81E03064
:1017C60011F0102B03C0E02FE0951E23A12F3ADF66
:1017D600198108815BC3AA93A981A03818F4A8814E
:1017E600A03410F0E0E07AC3E981EA93A9813CDFF6
:1017F6001E2EE881E770A1E00E94031EE12111F090
:10180600E1E001C0E0E06AC3AA931A93ED81EA938E
:10181600AD812ADF1E2FE0DEE981E73011F0E830E6
:1018260039F4EB81EA93AA810E944A16EB8308C039
:10183600E33021F4EB81E095EB8302C0E03021F444
:10184600EA81E0951E2302C0E23029F4EA81AB81E9
:10185600EA231E2B0EC0E13029F4EA81AB81EA238C
:101866001E2707C0E43029F4EA81E095AB81EA2B14
:101876001E23A12F0E94A11A188116C5AA93239789
:101886000E94D51EA889A03848F4AF85A03430F44C
:10189600AE85A03019F0AD85A03009F4C8C1EE853B
:1018A600E887A889BB27EE85F0E0AE0FBF1FA138F9
:1018B600E0E0BE0720F0A889E0E8EA1BEE872D8568
:1018C600AF85BB27ED85F0E0AE0FBF1FA134E0E08A
:1018D600BE0720F0AF85E0E4EA1BED87A985A630B8
:1018E60009F05BC0EC85E13009F4A1C1E33039F4BD
:1018F600E091F906F091FA06309709F498C1088547
:10190600ED85E695E695E6953E2FE22FE77019F40C
:10191600AD852A17E9F0A02FBB27E32FF0E00E9440
:10192600341EAA85BB850E94A51A2695269526955E
:10193600532F5F935F5FE22FAF91EA1748F0102FA6
:10194600E12F1150E03019F00E94AA1AF9CFF1CF19
:10195600AE850A1711F1EE85AA85BB85F0E00E94D7
:10196600A51AED85E77009F03F5F20E02F932F5F02
:10197600E32FAF91AE1788F41E851F931F5FE02FEC
:10198600AF91AE1718F40E94AA1AF7CFEE85AE8172
:10199600BF81F0E00E94A51AE9CFEF85E7703E2FE0
:1019A600ED85E03009F443C1EA85FB85EE83FF83CC
:1019B60010E00889303009F065C0AD85A83008F41C
:1019C6005CC0E985E03011F0E33009F402C0E7308D
:1019D60009F402C0E83009F402C0E63009F402C096
:1019E600E93009F402C0EA3021F40A93E8890E943A
:1019F6009B1A1F931F5FEE85AF91AE17B8F5A985A9
:101A0600A63061F428DEE8DD0E94B71AFA93EA935D
:101A160022DEAE2F0E94911600DE27C0E985E9304E
:101A260011F450E00EC0EA3011F45FEF0AC00E94D4
:101A3600B71A0E94C01A5E2FE985E73011F0E83028
:101A460021F40E94C61A5E2F06C0E33011F45095A9
:101A560002C0E03021F4A52F0E94A11A06C00E9400
:101A6600CA1AEFEFEA93AD85CFDEC3CFEF85E85F05
:101A7600EF87ED85E850ED87D1C05D8520E0E0E099
:101A8600ED877AC0E32FAD85AE0FA93020F42D8502
:101A9600E0E0ED8703C0E8E0E31B2E2F3A93A22F88
:101AA6000E943F164E2FE985E630F1F41F931F5F23
:101AB600EE85AF91AE17B8F40E94D01AAE2FE32F81
:101AC6000E940B1E0E94D71AE32FA42F0E940B1E02
:101AD600E095E1215E2B0E94B71AFA93EA93A52FAF
:101AE6000E949116E3CF2CC0E93011F450E003C0F8
:101AF600EA30A9F45FEF0E94C61AAE2FE32F0E94C8
:101B0600031E5E2F1F931F5FEE85AF91AE1730F455
:101B16000E94CA1A4A93A0E077DEF4CF11C01F9341
:101B26001F5FEE85AF91AE1758F40E94E21AAE2FF2
:101B3600E32F0E94031EEA934A93AD8565DEEFCF3D
:101B4600ED85E03009F473C0AD85A83028F4ED8545
:101B5600E21B5E2FE0E003C0532FED85E850ED87D2
:101B660010E0EF85E85FEF87E8E0E31B2E2F08899A
:101B7600EA85FB85EE83FF83E52FF0E0EC5BFD4F06
:101B86004491E985E630F1F41F931F5FEE85AF912E
:101B9600AE17B8F40E94D01AAE2FE22F0E94031E91
:101BA6000E94D71AE22FA42F0E94031EE095E1217E
:101BB6005E2B0E94B71AFA93EA93A52F0E949116FC
:101BC600E3CF2CC0E93011F450E003C0EA30A9F4A9
:101BD6005FEF0E94C61AAE2FE22F0E940B1E5E2FE9
:101BE6001F931F5FEE85AF91AE1730F40E94CA1A9D
:101BF6004A93A0E009DEF4CF11C01F931F5FEE8564
:101C0600AF91AE1758F40E94E21AAE2FE22F0E944F
:101C16000B1EEA934A93AD85F7DDEFCFE885AA85DB
:101C2600BB85F0E0EA0FFB1FEA87FB87B9CE0E946F
:101C3600DC1E619608950E94EF1A1CF0E0E0F0E0C9
:101C46004DC1A881B981A038E0E0BE071CF0EFE7DE
:101C5600F0E044C1E881F98141C10E94EF1A1CF00D
:101C6600E0E0F0E03BC1A881B981A034E0E0BE0726
:101C76001CF0EFE3F0E032C1E881F9812FC10E9448
:101C8600961AEA93A091DE0681DD28C10E94961A73
:101C9600EA93A091DF067ADD21C1BA93AA9323972E
:101CA6000E94F61A8F01002E012A19F4E0E0F0E0F6
:101CB6005FC00E94FD1A0F820E94FD1A0E820E94CA
:101CC600FD1A0886EB85A885EA1718F4E0E0F0E02F
:101CD6004FC0F8010F5F1F4F5491A885BB27EE2711
:101CE600A50FBE1FEB85F0E0EA17FB0718F0E0E052
:101CF600F0E03EC0EE81E695E695E6954E2FEE8144
:101D0600E77009F04F5FEF81E030A1F0A985BA8551
:101D1600EC93A885EB85EA1BF0E0DF01EF81F0E0AC
:101D26000E94341EDF01E42FF0E00E94341EE00F13
:101D3600F11F1EC09801E52FF0E00E0F1F1FA885AA
:101D4600AF5FA887A150EB85AE1760F4F9012F5F4E
:101D56003F4FA491B0E0E42FF0E00E94341E0E0F36
:101D66001F1FEDCFF901E491A985BA85EC93F8011F
:101D76000E94DC1E2C960895E0E0E093E006A09118
:101D8600E106BB270E94021BF0E0AE0FBF1FE091E9
:101D9600E506F0E0AE0FBF1F60DFE093E1060895B1
:101DA600AA9321970E94F61A309709F457C0AF817B
:101DB600AA3009F44FC0EF81EA93DE0117966DDF72
:101DC600AF01309719F40E94DC1EDDC1E091E406F4
:101DD600AE81EA0F3E2FA091E006BB270E94091BA9
:101DE6000138E0E01E0718F0032F1127C5DFE09148
:101DF600E006EA93E091E106EA93E885EA930E9419
:101E0600021BEA93E1E0EA935A934A93A7E036DD90
:101E1600E091E006AE81EA0FEA93E091E106EA93EB
:101E2600E091E406EA930E94021B0E940E1BE091D9
:101E3600E006EA93A091E1060E94021BEA0FEA93EC
:101E46003A93E091E5060E940E1BE0E8F0E0E01709
:101E5600F10721F491DF0E94DC1E95C10093E00694
:101E66000E94DC1E90C1BA93AA931A93EC81EA935E
:101E7600AC8129D0A981BA81ED91A983BA831E2F9D
:101E8600E03019F0A12F8CDFF5CF18812596089543
:101E9600AA93EA81EA93EA81EA93E091E706AA81A6
:101EA600EA2319F0E091DE0602C0E091DF06AE2FCC
:101EB6006DDCE881EE0FE883E03011F4E1E0E883C1
:101EC600E88123960895AA93A981BB27B4DEE093FF
:101ED600E006A881BB27C1DEE093E10622960895BD
:101EE600AA932B970E94D51EAC89BB27A4DEEC8B48
:101EF600AA89BB27A0DEEA8BAB89BB27AEDEEB8BBC
:101F0600A989BB27AADEE98BEA89E093E006E9897D
:101F1600E093E106E1E0E887E989AB89EA1771F524
:101F26001C89AA891A1731F41A93EC89EA93A1E05D
:101F3600AFDFC8C0AA891A1730F4EA89E11B0E2F51
:101F460041E050E006C0AA89E12FEA1B0E2F4FEFB1
:101F56005FEF3B89E0E0EE830E94181B38F41A938A
:101F66003A933395AA8594DFEF83F6CFEF81E8871E
:101F7600140FE02F0150E03061F7A4C0EA89AC8964
:101F8600EA1739F53B89A9893A1730F4E989E31B41
:101F96002E2FE1E0F0E006C0A989E32FEA1B2E2FE1
:101FA600EFEFFFEFED87FE871C89E0E0EE830E94EE
:101FB600181B30F41A9313950E94201BEF83F7CF5A
:101FC600EF81E887ED853E0FE22F2150E03061F783
:101FD60079C0E0E0EE830E94181B08F073C01C89EC
:101FE6003B89E1E02E2F0E2FAA89BB27EC89F0E072
:101FF600AE1BBF0BAD0155232AF40FEFFA010E9469
:10200600F71DAF01FA01EE0FFF1FEF87F88BA989C5
:10201600BB27EB89F0E0AE1BBF0BAD87BE87AE8555
:10202600AA233AF42FEFED85FE850E94F71DED8772
:10203600FE87ED85FE85EE0FFF1FEB87FC871A9363
:102046003A93A1E025DFE887E0E0E987EA87AD85F6
:10205600BE854A175B07BCF0100FEB85FC850E9416
:10206600241BA985BA854A175B072CF4320FAF8566
:10207600B8890E942B1B1A930E94201BE887EA89C5
:10208600E11751F718C0320FEF85F8890E94241B1B
:10209600ED85FE85A985BA85EA17FB072CF4100F96
:1020A600AB85BC850E942B1B1A930E94201BE887D8
:1020B600E989E31741F7EB89EF5FEB8BE989EF5F7E
:1020C600E98B89CF0E94DC1E65960895BA93AA9380
:1020D6000E94D51EEE81FF81138101813281AE817E
:1020E600BF812C91011718F4502F012F152F23179C
:1020F60018F4522F232F352FE12FAE81BF8113966F
:10210600EC93E32FAE81BF811296EC93E02FAE8164
:10211600BF811196EC93AE81BF812C930E94DC1E89
:1021260032C0AA930E94D71EE091E606E1503E2FE8
:10213600DE011496CBDFED81E31B1E2FEC81E31B42
:102146000E2FEF81EA93EF81EA931A93A985C8DEF1
:102156001A93EF81EA931A93A02FC2DEED81EA93D8
:102166000A93E32FA985EA0FEA93A02FB9DEEF8140
:10217600EA93ED81EA93E985EA93E32FA985AE0F09
:10218600AFDE0E94DE1E28960895AA9322970E942B
:10219600D51EEA85E03019F0E985E03009F45EC025
:1021A600E885AC85EA0F1E2FE885AB85EA0F2E2F52
:1021B600E091E606E150EF83EA85AC85AE0FA150CB
:1021C6003A2FA885E32FEA1B0E2FAF813A1BE9852C
:1021D600AB85AE0FA1504A2FA885E42FEA1B5E2FD0
:1021E600AF814A1BE091E706EE83EFEFE093E70647
:1021F6001A93EC85EA93E02FE150EA93AE8570DE00
:102206000A932A93EA85EA93A1E80CD23A932A9391
:102216003A93A52FA15064DE0A935A93EA85EA936E
:10222600A8E800D20A934A931A93A42F59DE1A9368
:102236005A93EA85EA93A4E8F5D1EC85EA935A9392
:10224600EE85EA93A22F4CDE1A932A93EA85EA9347
:10225600A2E8E8D1EE81E093E70604C0EC85EA93B4
:10226600AC850DDDDEC20E94871E1A930A93AA81F1
:10227600BB818C819D810E94E1160E947F1C8F018B
:10228600AA81BB818C819D810E94231E0E94B61C5F
:102296000E94321BDF01CB010E94371B10F00F5F3B
:1022A6001F4FF8011981088126960895BA93AA93BB
:1022B6002497E985FA85662777270E94B61CA5E349
:1022C600BAEF8EE89CE30E943E1BEC85F0E0FF939C
:1022D600EF930E94431B0E9475170E94461BAF9105
:1022E600BF91AE0FBF1FA7DCAE81BF81EC93EB851C
:1022F600F0E0FF93EF930E94431B0E94F1160E94A9
:10230600461BAF91BF91AE1BBF0BA7DCAC81BD8155
:10231600EC9389C2BA93AA9323970E94D51EED85A2
:10232600E887E091E606EF83E091DE06EE83AA8970
:10233600BB27EF850E94091BA989BB27E8890E9454
:10234600521BE8890E94591B71F0E885E078F1F488
:10235600AD85BE85EAE5F0E00E94611B1CF00E9497
:102366006A1B0CF413C0332312F00E946F1BAF815B
:10237600A23020F02230E0E03E070CF407C00E94B5
:10238600731B21F40A93A22FA15079DCE885E87823
:10239600E83891F0E885E078C9F4AD85BE85A25F9E
:1023A600BE4F0E947C1B3CF0AD85BE85A25FBE4F32
:1023B6000E94811B0CF40AC00E94861B38F00E9402
:1023C6008D1B21F40A93A42FAF5F59DCAA89BB2782
:1023D600EF85F0E0AE1BBF0B8D0111230AF445C05B
:1023E600E885E278E23891F0E885E07811F5AD8588
:1023F600BE85A65ABF4F0E947C1B3CF0AD85BE85AC
:10240600A65ABF4F0E94811B0CF413C0332312F04F
:102416000E946F1BAF81A23020F02230E0E03E0721
:102426000CF407C00E94731B21F40A93A22FA1503B
:1024360026DCE885E478E43871F0E885E078A9F4EC
:10244600AD85BE85EEE0F1E00E94611B1CF00E94A6
:102456006A1B0CF40AC00E94861B38F00E948D1B72
:1024660021F40A93A42FAF5F0ADCAA89BB27E88967
:102476000E94091BA989BB27EF850E94521BEF8585
:102486000E94591B81F0E885E078F1F4EB85FC8524
:10249600AD85BE85AE17BF072CF0E985FA85EA172C
:1024A600FB070CF411C033237AF00E946F1BAF8137
:1024B600A23050F0E02FEE5F0E94961B29F4E02F29
:1024C600EF5FEA93A22FDBDBE885E878E83871F066
:1024D600E885E078C1F4AD85BE85E8E6F1E00E94C6
:1024E600611B1CF00E946A1B0CF40DC00E94861B27
:1024F60050F0E02FEE5F0E949E1B29F4E02FEF5F65
:10250600EA93A42FBCDBAA89BB27E889F0E0AE1BBF
:10251600BF0B8D0111230AF450C0E885E278E2383A
:1025260071F0E885E07809F5AD85BE85E4EBF0E06D
:102536000E94611B1CF00E946A1B0CF416C0332318
:10254600A2F00E946F1BAF81A23020F00230E0E0C3
:102556001E070CF40AC0E02FE2500E94961B29F4D5
:10256600E02FE150EA93A22F8ADBE885E478E4388D
:1025760091F0E885E07809F5AD85BE85AC54BF4F8E
:102586000E947C1B3CF0AD85BE85AC54BF4F0E94BB
:10259600811B0CF412C00E94861B20F00230E0E082
:1025A6001E070CF40AC0E02FE2500E949E1B29F47D
:1025B600E02FE150EA93A42F62DB0E94DC1E6396B3
:1025C6000895AA930E94D71EAF81BB27ED81F0E044
:1025D600AE1BBF0B30DB1E2FAF81BB27ED81F0E0BA
:1025E600AE0FBF1F28DB0E2FAE81BB27EC81F0E0BC
:1025F600AE1BBF0B32DB3E2FAE81BB27EC81F0E07A
:10260600AE0FBF1F2ADB2E2F1A933A930A93A32FDE
:1026160067DC1A932A930A93A22F62DC0E94DE1EBD
:102626000C94A917AA930E94D51EA985A03818F460
:10263600A885A03418F00E94DC1E79C05091E606E9
:10264600E52F5150E030C1F1EF81E03019F40E94DE
:10265600DC1E6DC0EF81E150EF830E94A61BAE81A8
:10266600A03459F40E94B51B1A93A02FAADF0E942A
:10267600B51B0A93A12FA5DF0FC00E94B51B1A93A5
:102686000A93EA85F0E0FA93EA93E0E0F0E0FA9341
:10269600EA93A0E0B0E03EDE1F5F33231AF4E12F99
:1026A600F0E002C00E94BA1BEE0FFF1F31962E0FFC
:1026B6003F1F0117A0F6C4CF0E94DC1E38C0AA93A4
:1026C600EA81EA93EA81EA93EA81EA93AFE8AADF2C
:1026D6000C948F16BA93AA930E94D71EA985A03888
:1026E60018F4A885A03410F0E0E01FC0AE81BF81C9
:1026F6000D911C91AC81BD812D913C91D801E8E6EC
:10270600F1E00E945A1E8F01D901E9E6F1E00E942C
:102716005A1E9F01AE81BF810D931C93AC81BD8172
:102726002D933C93D8010E942E1E0E94DE1E2A96EF
:102736000895AA930E94D51E0E94C31BFE013B96D4
:10274600FA93EA93DE011B96C5DFE03009F469C00F
:10275600EC85E093E806EB85E093E9060E94C31B4F
:10276600EB85FC85FA93EA93EA85EA93EAEEF6E0CE
:10277600FA93EA93ABEEB6E099DD0E94C31BE985B6
:10278600FA85FA93EA93EA85EA93ECEEF6E0FA9391
:10279600EA93ADEEB6E08ADD5091E606E52F51509C
:1027A600E03009F43EC0EE81E030D9F1E150EE832D
:1027B6000E94A61B0E94C31B1A930A93E02FFF27B1
:1027C600662777270E94B61C0E94821EE12FFF27EC
:1027D600662777270E94B61CDF01CB010E94E81707
:1027E600A1EEBEE285E692E40E94401D0E947F1C97
:1027F600FA93EA93EF85F889FA93EA93AF85B88955
:1028060089DD1F5F33231AF4E12FF0E002C00E9436
:10281600BA1BEE0FFF1F31962E0F3F1F011750F602
:10282600BDCF0E94DC1E2D960895AA930E94D71E46
:10283600AF81A03818F4AE81A03420F00E94DE1ECD
:102846000C94A917ED81E03019F0EC81E03009F421
:102856002BC03E81E32FAC81EA0FEC83EF81AD8183
:10286600EA0FED83EC813E17F8F4E31B2E2F293097
:1028760008F028E01F81ED811E17A0F4E11B0E2F42
:10288600093008F008E01A933A930A932A93E0E095
:10289600EA93EFEEF6E0FA93EA93A8E00E94410C81
:1028A600100FE9CF320FDECF0E94DE1E0C94A9175F
:1028B600AA93DE010BDCEB81EA93EB81EA93AD810F
:1028C600EB81EA1BEF5FEA93AD81EB81EA1BEF5FD9
:1028D600AE2FABDF0C94E617BA93AA931A930A931A
:1028E600AA81BB8112960E946B1E309759F1AA816C
:1028F600BB8114960E946B1E8F01309761F00230E7
:10290600E0E01E0798F0F80131978F01AA81BB819C
:102916001496ED93FC93AA81BB811296ED91FD91DD
:102926003196FE93EE933197AC81A083AA81BB8149
:102936000E946B1EFF232AF0ED91FD913196FE93C6
:10294600EE9306C0AA81BB81EFEFFFEFED93FC93F8
:102956001981088176C1BA93AA9326970E94D51E3B
:1029660010E0AC85BD85E0E0F0E0ED93FC93EA89EC
:10297600FB893196EA8BFB8B3197E4912E2FE03061
:1029860009F415C1E12FE03039F4253211F411E0D4
:1029960002C00E94C81B0AC1E130A9F4253219F40D
:1029A6000E94C81B02C112E040E000E02D3211F483
:1029B60001E0FCC02B3211F44BE2F8C0203211F4D6
:1029C60040E2F4C002C0E23039F450E013E02033B4
:1029D60011F40068EBC003C0E33009F0E7C0203310
:1029E60010F02A3308F007C0AAE05A9F502DE22FB4
:1029F600E0535E0FDBC0E22FE33649F40E94CF1BA3
:102A0600E889F989A481AA930E94D51BCEC0E33731
:102A160041F40E94CF1B0E94DB1B0E9426161E2F2C
:102A26000AC0E03761F40E94CF1B0E94DB1B0E94A4
:102A360032161E2F086002600F7730E034C0E4368D
:102A460011F0E93611F4046002C0E53731F4EEE422
:102A5600F2E0EE83FF8315E00CC0E83511F4086060
:102A660003C0E83709F0A1C0E8E5F2E0EE83FF8392
:102A760014E002FF14C00E94CF1B0E94E51BAB8529
:102A8600AA233AF4EA85FB850E94F71DEA87FB87AD
:102A96004DE2403011F01F5F01C00B7F04C00E9461
:102AA600CF1B0E94E51B00FD11C0151778F407FF28
:102AB60008C002FF04C00B7F242F115001C020E381
:102AC60001C020E20E94C81B5150EFCF312F01FFF9
:102AD60017C03030A1F003FF06C0EE81FF812591BB
:102AE600EE83FF8305C0AE81BF812D91AE83BF8388
:102AF6000E94C81B503009F051503150EACF4BC0EC
:102B060020E3EE81FF810E946F1EE887F987EE8140
:102B1600FF813296EE83FF83E885F985AA85BB851A
:102B2600AE17BF0750F02F5FA885B985EA85FB85EC
:102B3600EA1BFB0BEA87FB87EFCF2A3328F003FF5C
:102B460002C0295F01C0295D04FD1AC0213320F4AB
:102B5600A885B985119709F409C0531710F000FF2D
:102B660001C013C020E207FF0BC020E3006102FF93
:102B760007C00B7F4A930E94D51B503009F0515075
:102B86000E94C81B503009F051503150A885B985B4
:102B9600129708F0B5CF00FF08C0503031F0515001
:102BA600E0E2EA930E94D51BF8CF10E0E0CEAC85B8
:102BB600BD850E946B1E0E94DC1E64960895FF92DE
:102BC600F82E26970E94D71E0E94ED1B309719F407
:102BD600EFEFFFEF23C0DE0116960E94F31D8D0175
:102BE6000E94ED1BEE83FF83E0E0E887E987DE01C4
:102BF6001A960E94F31D0E946B1EFA93EA931A938B
:102C06000A93EFE6F4E1FA93EA93DE011A96A3DE5D
:102C16009F01AE81BF81E0E0EC93F9010E94DE1EC8
:102C26002A96FF900895BA93AA93B981A88110961F
:102C360031F0FC81EB816A8161931197E9F7EB81B1
:102C4600FC8125960895BA93AA93A991B991EE2786
:102C5600FF276D91662311F03196FBCF0895BA9345
:102C6600AA93AA27BB27E991F9910590002011F0B4
:102C76001196FBCFFD010895AA93E881F0E0EC5B85
:102C8600FD4FA491E9810E94031E22960895AA93FE
:102C96001A93E981E73011F0EA3019F41091DE0653
:102CA60009C0E93019F41091DF0604C0E830A1F438
:102CB6001091EE06E091DF06E03049F0103019F091
:102CC600EFEF188129C0EA81E095188125C0103000
:102CD60019F4E0E0188120C0EA8118811DC0BA937A
:102CE600AA93EA81E13021F4E881F981E49114C0E4
:102CF600E23029F4A881B9810E94A21E0DC0E330FA
:102D060041F4A881B981E091F706F091F80609959A
:102D160003C0A881B981EC9123960895AA93EB810B
:102D2600E03029F4E881A981BA81EC9314C0E2303D
:102D360031F4E881A981BA810E94B61E0CC0E33045
:102D460051F4E981FA81FA93EA93AA81E091F906AE
:102D5600F091FA0609950C94E6170E94871E7B816E
:102D66006A81F981E88177FB770F67FD7160972F9C
:102D76009E5781F078F0983190F4AA27BB278827D0
:102D860008948795B795A7959A95D1F7EA23FB23DB
:102D9600682305C0E8947727EE27FF2766276F7715
:102DA600769508F4606877F9A991B9918991999116
:102DB600EA17FB076807790797FB08950E94F41B3B
:102DC6000E94B0160E947D1E19F40E94F71BFBC0DC
:102DD600E6F70E94FA1B0E94E91CF5C00E94871EB6
:102DE60024971A9310E00E94001CE3E8F9EF62E2D0
:102DF6007EE30E94401D0E94051CE0DF0E94001C2D
:102E06000E94321B0E94051C0E94371B09F008F421
:102E160009C00E940A1CA0E0B0E080E09FE30E9487
:102E26000F1C11E00E94001CE0E0F0E060E87EE389
:102E36000E94D31D09F008F408C00E94001CE0E0BF
:102E4600F0E060E07FE30E940F1C103041F00E942A
:102E56000A1C0E944A1CED83FE836F8378870E94BA
:102E66000A1C0E94001C0E94401DE983FA836B83A2
:102E76007C83A1EBB4EC86E292E40E94401DDF0164
:102E8600CB01EDE1F5EE6DE272E40E94321B0E9489
:102E9600161CACE4B3E584E091E40E94F01C0E94A9
:102EA600001C0E94401D7F936F93FF93EF93E9816F
:102EB600FA816B817C81A1E1BDEE8EED9FE30E94DC
:102EC600F01C0E94161CAEE5BBE788EA9FE30E9451
:102ED600F01CAF91BF918F919F910E948E1D18811A
:102EE600299608950E94F41BEBEDFFE069EC7FE361
:102EF6000E94E91CDF01CB0171DF65C00E941D1C29
:102F06000E94251C0E943E1B0E94F71BA5E6B0ED01
:102F16008BEC90E40E942A1C0E94251C0E94401DF6
:102F26007F936F93FF93EF930E94F71BA0E0BDE69C
:102F360089E291E40E94F01C0E94431B0E942A1C15
:102F4600AF91BF918F919F910E948E1D28960895F3
:102F56000E94F41BEDECF3E164ED7EE30E94D31DC9
:102F660020F40E94431BCADF2EC00E94431BEAE7DF
:102F7600F2E86AE170E40E94D31D09F008F40BC080
:102F86000E94FA1B0E94331CABEDBFE089EC9FE365
:102F96000E94321B18C00E94FA1B0E94E91C7F93F4
:102FA6006F93FF93EF930E94FA1B0E94F01CAF9160
:102FB600BF918F919F910E94331CABEDBFE089E4D6
:102FC6009FE30E94F01C249608950E941D1C0E94F7
:102FD600C71EE9F4E885F9856A857B850E94C71EC8
:102FE60029F4EFEFFFEF6FE77FE743C0A885B985C8
:102FF6008A859B850E94CF1E2CF4EBEDFFE069ECE1
:103006007FE337C0EBEDFFE069EC7FEB32C0EC818C
:10301600FD816E817F81A885B9858A859B850E9401
:103026008E1D0E947D1E0E94251C0E94CF1E64F4E8
:10303600AB85AA2322F00E94431B8ADF1AC00E9496
:10304600391C0E944A1C15C0AB85AA234AF00E946F
:10305600391CABEDBFE089E490E40E94321B09C045
:103066000E94431B75DFABEDBFE089E490EC0E9444
:10307600F01C2C9608950E94A30BE2E0EA93EA93D3
:10308600ECE7EA930895ECE3EA93A5E00C94C81004
:103096000E94360FE5E0EA930895B0E00E94401CD6
:1030A600AAE00895DF01E65FEA93E8E2EA93FD010C
:1030B600EC5EEA93A2E30C945B141A930A9300E085
:1030C60010E00E94A30BE4E0EA93E5E0EA9308959A
:1030D6000E94360FE2E0EA93E4E1EA93ECE7EA9332
:1030E6000895E7E3EA93A2E00E94C810E5E0EA93B8
:1030F600E9E1EA9308950E94360F0E94D1048F01F8
:103106000895EDE2EA93A2E00E94C810E5E0EA9392
:10311600E9E1EA9308950E942507A4EFB1E00C9433
:10312600401CF8010E94131EE20FF31F08950E942F
:10313600A30BE1E0EA93EA93EEE7EA93EEE3EA9380
:10314600A5E00E94C810E5E0EA93EAE0EA93089554
:103156000E94401C0C94A30B0E94A30BE0E0EA9390
:10316600EA930895EAE2EA93EFE0EA93A2E00C9488
:10317600C810EAE2EA93E0E0EA93EBE2EA93EFE0D2
:10318600EA93A2E00E94C810E5E5EA93E0E0EA933C
:10319600E9CFE0E0EA93E0E1EA93E0E8EA93089514
:1031A600EA93A2E00C94C810FE013696FA93EA93CD
:1031B6000895EDE1F3E0FA93EA93F9010E94231EE4
:1031C6000E94821E84E00E94E2152896EBE2EA93B2
:1031D600E3E0EA93DE0118960C94360FE2E0EA93F8
:1031E600E4E1EA9308950E94360FDECFEBE2F3E0C6
:1031F600FA93EA93F9013197A6E0B0E00E94341EF3
:10320600E050F040DF010E94A21EFF2766277727C5
:103216000E94821E84E00E94E2152896ECE3EA935F
:10322600E4E1EA93DE011896DECFFA93EA93F90118
:103236003197A6E0B0E00E94341E0895EF5FFF4F7D
:10324600DF010E94A21EFF27662777270E94821EA3
:10325600F9013197A6E0B0E00E94341EEE5FFF4F01
:10326600DF010E94A21EFF27662777270E94821E83
:10327600F9013197A6E0B0E00E94341EED5FFF4FE2
:10328600DF010E94A21EFF27662777270E94821E63
:103296008CE00E94E2156096EEE1EA93EA93DE0185
:1032A6001896A1CFEC5FFF4FDF010E94A21EFF27F9
:1032B600662777270E94821EF9013197A6E0B0E0C3
:1032C6000E94341EEB5FFF4FDF010E94A21EFF2704
:1032D600662777270E94821E88E00E94E2152C96B8
:1032E600E3E2EA93E8E2EA93DE0118960C94360FDD
:1032F6000E94360FE7E5EA9308950E94360FE2E052
:10330600EA930895A4EFB1E00C94401CA6E0A09FB8
:10331600F001A19FF00DE050F040DF010E94A21ED7
:103326002E2FF0E0E235A0E0FA070895AA81BB81CE
:10333600E6E00E943C1E0895DF010E94A21E1E2F99
:103346000895EF5FFF4FDF010E94A21EEA93AB8153
:10335600BC81E6E00E943C1EEE5FFF4FDF010E944B
:10336600A21EEA93AC81BD81E6E00E943C1EED5FA1
:10337600FF4FDF010E94A21EEA93AD81BE81E6E007
:103386000E943C1EEC5FFF4FDF010E94A21EAE2F83
:103396000895EF5FFF4FDF010E94A21EEA93AB8103
:1033A600BC81E6E00E943C1EEE5FFF4FDF010E94FB
:1033B600A21EEA93AC81BD81E6E00E943C1EED5F51
:1033C600FF4FDF010E94A21E0895E6E00E943C1E08
:1033D600EC5FFF4FDF010E94A21E0895DF010E94ED
:1033E600A21EAE2F08950E94360FFE013A96FA935A
:1033F600EA9308950E94231E0E94821E84E00E9482
:10340600E215289608950E94360F0E94D1049F0166
:103416000895EC83E2E0EA93EEE1EA9308950E94D0
:10342600360FE9E1EA930895E2E0EA93E8E2EA93E7
:1034360008950E94360FE2E3EA93A2E30C94200972
:10344600E7E5EA93E3E0EA930895FF2766277727FF
:103456000E94821E089540E050E0EE89EA93EE89CC
:10346600EA9308950E94360FACE2B1E00E94401C38
:10347600E7CFE6E00E943C1EEF5FFF4FDF010E94B0
:10348600A21E0895E6E00E943C1EEE5FFF4F0895DF
:10349600A981BA81EECFA981BA81E6E00E943C1EDD
:1034A600ED5FFF4FDF010E94A21E08950E94420EAB
:1034B600E7E0E4150895E42DF0E0E45CFD4F0490A8
:1034C60002BAAEE1B0E00E949E1EDF010C94401CE1
:1034D6000E94420EE7E0E5150895E52DF0E0E45C74
:1034E600FD4FE491E295E07FE2BBAEE1B0E00E94E1
:1034F6009E1EDF010C94401CEA93AB810E94490E8C
:10350600EB81EA93AB81D2CF0E94490EE981EA931F
:10351600AB81DECFC198EFEFEABBE881EBBB0E943F
:10352600C20A0C94C60AAA93E981EA93E98108952E
:10353600E695E695E695AE2F0C94010B0E94250BB9
:103546000C94100BEA0FFB1FEE83FF830895EC85A6
:10355600EA93EF81F8853196EF83F8873197FA93EE
:10356600EA93A0E00C949116EC85EA93EF81F88536
:103576003196EF83F8873197089566277727DF011D
:10358600CB010C9472165A93AA850C944A160A9388
:103596000395E889EA935A9308950A930395A889AF
:1035A6000E94370BE42308955E2FEC85EA93AF81E2
:1035B600B885882799270E9472161E2E08950A93A9
:1035C6000395E889EA93EE85EA93E985FA853196CB
:1035D600E987FA873197D1CFBA93AA93A881B9819F
:1035E6000E94CB1E08950E94D51EE091E206F0913E
:1035F600E3060895F8010F5F1F4F04900895E091C8
:10360600E206F091E3063196E4910895F0E0EA0FC0
:10361600FB1F8F010895EA93E0E0EA93E0E0F0E013
:10362600FA93EA93A9E00C94410CAE81AF5FAE83A6
:10363600A150E091E606AE1708953A93AA850C9438
:103646004B0FA985BA85EA0FFB1FE987FA8708950C
:10365600E985FA85EA1BFB0BE987FA8708950E943C
:10366600911E0E94E91C0895E0E0F0E060E07FE32F
:103676000E94D31D08950E94401D0E947D1E08953C
:103686000E94781E0895A885BB27882799270E943F
:103696008E1E0E94401DDF01CB010C943611F0E016
:1036A600AE1BBF0B9D01A989BB270895F0E0EA0F69
:1036B600FB1FAF01E885E178E1380895EA1BFB0BB3
:1036C6000F01DF01EB85FC85AE17BF070895E9857D
:1036D600FA85E015F10508950A93A22F0C94420E7F
:1036E6000A93A22FA2500E94EE0BAE2FEE81EA178C
:1036F6000895EB85FC85AE17BF070895E985FA8521
:10370600EA17FB0708950A93A42F0E94420EAF8181
:10371600A23008950A93A42FAE5F0E94EE0BAE2F3F
:10372600EE81EA170895EA93A22F0E94EE0BAE2FC0
:10373600EE81EA170895EA93A42F0E94EE0BAE2FAE
:10374600EE81EA170895EF5F0E2FF0E0A5E0B0E0F6
:10375600AE1BBF0BFD010E94131E0E94181E9F0187
:1037660010E00895E985EA93E985EA930895015002
:10377600A12FBB27E02FF0E0AE1BBF0BFD01089584
:10378600EC85EA93EC85EA9308952A93AD85BE8588
:10379600EF85F88909950895E889F9893497E88BC2
:1037A600F98B0895AD85BE85EF85F889099508954D
:1037B600A889B98914960E946B1EEE83FF83AE8199
:1037C600BF810895A889B98914960E946B1EEA875D
:1037D600FB870895DE011C960E94F31D0E946B1E56
:1037E60008950E94871E4CCF0E94731E0895FCDF29
:1037F600A0E0B0E080E89FE30895AD81BE818F81AF
:1038060098850895ED83FE836F837887F6CFED81E3
:10381600FE816F81788508950E94E91CED83FE8301
:103826006F8378870895A981BA818B819C810E94D4
:10383600401D08950E94871E2497EC81FD816E81AC
:103846007F810895AC81BD818E819F8108950E94FC
:10385600401DAEE4BFE88AE491E40E94F01C08959E
:103866000E948E1DDF01CB010C948117BDDF0E94E3
:103876004A1CDF01CB010C94AB17109639F080ED92
:1038860097E00197F1F7A8951197C9F70895309732
:103896006040704009F070580895552342F450383E
:1038A60011F4E0FF04C03196691F791F6BF050E8F0
:1038B600572711F45F93CFC05F3F31F0660F000CBE
:1038C60057956795752F08955F9300200AF0CFC02E
:1038D600C8C050E8192E1522880F991F9527550F35
:1038E600879550E8072E0522660F771F7527550F17
:1038F60067950895689401C0E8945F93F2DF703885
:1039060018F07F3F08F4A7C056E1571BAAF451955B
:1039160058300EF4593030F0EFEFFFEF6FEF7FE7DE
:1039260077F91AC077275523B9F0EE0FFF1F661FE8
:10393600771F5A95D1F710C07727583028F0EF2F08
:10394600F62F672F5850F9CF552331F076956795A6
:10395600F795E7955A95D1F700200AF449D15F917A
:103966000895689401C0E894309760407040B1F0C3
:10397600002426F0772312F400943AD1172E7EE124
:10398600112032F07A95EE0FFF1F661F111CF9CF3A
:10399600EF2FF62F612D5F938ADF5F9108954F9386
:1039A600AF01FD01DA01AB01BC01CA01402D012CBA
:1039B600142E4F910895EA0FFB1F681F0895E09596
:1039C600F0956095EF5FFF4F6F4F08955F9381DF2E
:1039D600903871F150E8152604C05F937ADF90386D
:1039E60039F1703821F1572F591B2BF112F4D7DF1B
:1039F600FACF583118F0AA27BB278827583028F065
:103A0600AB2FB82F88275850F9CF552329F0869524
:103A1600B795A7955A95D9F7502D512572F0CBDF5A
:103A260038F46795F795E795739513F420C0B7DFDB
:103A36003EDF5F910895D8F7FBCFEA1BFB0B680BBF
:103A460051F010F40094BBDF662392F3EE0FFF1FD4
:103A5600661F7A95CBF7EE27FF27662777275F91B4
:103A66000895EFEFFFEF6FE77FEF5F910895EFEFB8
:103A7600FFEF6FE77FE75F9108955F932ADF703866
:103A860051F3903841F301240894791F23F41CF371
:103A960000203AF3ECCF0F921F932F933F934F934F
:103AA600112722279927689FA0018F9F302D410D4E
:103AB600591F6B9F300D411D591F8E9F27D0BF9FE9
:103AC60025D06A9F23D0BE9F1DD0AF9F1BD0AE9F2F
:103AD600110D291F391F491F591FE32FF42F652F79
:103AE600522F4F913F912F911F910F9066232AF0ED
:103AF600550FEE1FFF1F661F02C073954BF2CDDEFA
:103B06005F910895100D211D391F02C0200D311D32
:103B1600491F591F08955F93DCDE703821F4112088
:103B26000AF49FCFA4CF903809F495CF01240894C6
:103B3600970B1BF4D4F30020F3CF792F1F932F9309
:103B46003F934F93112411272227332744275527C4
:103B560090E2AE17BF078607410730F0AE1BBF0BDA
:103B6600860B410B089401C08894551F221F331FF2
:103B7600111CAA1FBB1F881F441F9A9551F7F901F4
:103B8600612D4F913F912F911F91662332F0550F72
:103B9600EE1FFF1F661F7A9543F27FDE5F91089541
:103BA60099239AF0772342F0971748F029F4AE1735
:103BB600BF07860720F031F098948894089598946A
:103BC600089408951894889408957723C2F7971750
:103BD60098F3A9F7EA17FB07680788F399F3ECCF80
:103BE6000024AF0DB01D0895F195E195F0400895BC
:103BF600F09560957095E195FF4F6F4F7F4F089553
:103C0600EE230E2EEA2F19F0EE0F0A94E9F7089527
:103C1600EE230E2EEA2F19F0E6950A94E9F7089599
:103C2600EE0FFF1FEE0FFF1F0895F595E795F5952B
:103C3600E7950895FE2FFF0FFF0B6F2F7F2F089537
:103C46006F2F660F660B762F0895BA2FBB0FBB0B2F
:103C56008B2F9B2F0895EA17FB07E1E008F4EE2768
:103C66000895FA9FF02DEB9FF00DEA9FE02DF10DE0
:103C760008956E2F6A9FF0016B9FF00D08951AD07C
:103C8600F0DF0EF4B1DF08950024112490E1AA0FAD
:103C9600BB1F001C111C0E1A1F0A18F40E0E1F1E45
:103CA60001C0A1609A9599F7FD01D0010895ECDF56
:103CB600FD010895E894F7FF02C096DF6894B7FF08
:103CC60006C0A095B095119600F8039400FA0895E1
:103CD600ED91FC91119708950590F491E02D0895CA
:103CE600E881F9816A817B810895A881B9818A81F9
:103CF6009B810895E883F9836A837B8308957A9389
:103D06006A93FA93EA9308959A938A93BA93AA9335
:103D16000895689401C0E89401D026DE182E862FF7
:103D2600612D192E972F712D1B2EBF2FF12D1A2EB7
:103D3600AE2FE12D0895119602D0FE2F1197E1992D
:103D4600FECFFF93FFB7F894AEBBBFBBE09AEDB3CF
:103D5600FFBFFF91089507D01196EF93EF2F03D081
:103D6600EF9111970895E19B02C0A895FCCF9FB7EC
:103D7600F894AEBBBFBBE09A8DB3E81719F0EDBB64
:103D8600E29AE19A9FBF0895309760407040089587
:103D960000240A160B06089500240A160B060806C8
:103DA600090608955A934A933A932A931A930A93C3
:103DB60008955D814C813B812A811981088108958E
:00000001FF
